:020000040800F2
:10000000E8BD0020C1010008C9010008CB010008BB
:10001000CD010008CF010008D10100080000000058
:1000200000000000000000000000000029D10008CE
:10003000D50100080000000045C700082BD10008CA
:10004000DB010008DB010008DB010008DB01000820
:10005000DB010008DB010008DB010008DB01000810
:10006000DB010008DB010008DB010008DB01000800
:10007000DB010008DB010008DB010008DB010008F0
:10008000DB010008DB010008DB010008DB010008E0
:10009000DB010008DB010008DB010008DB010008D0
:1000A000DB010008DB010008DB010008DB010008C0
:1000B000DB010008DB010008DB010008DB010008B0
:1000C000DB010008DB010008DB010008DB010008A0
:1000D000DB010008DB010008DB010008F9D800089B
:1000E000DB010008DB010008DB010008DB01000880
:1000F000DB010008DB010008DB010008DB01000870
:10010000DB010008DB010008DB010008DB0100085F
:10011000DB010008DB010008DB010008DB0100084F
:10012000D5210008E5210008DB010008F5210008C1
:10013000DB010008DB010008DB010008DB0100082F
:10014000DB010008DB010008DB010008DB0100081F
:10015000DB010008DB010008DB010008DB0100080F
:10016000DB010008DB010008DB010008DB010008FF
:10017000DB010008DB010008DB01000800000000D3
:10018000DB010008DB010008DB010008DB010008DF
:10019000DB010008DB010008DB010008DB010008CF
:1001A000DB010008DB010008DB010008DFF80CD0F0
:1001B00000F08EFA00480047CD690108E8BD002034
:1001C0000648804706480047FEE7FEE7FEE7FEE7F1
:1001D000FEE7FEE7FEE7FEE7FEE7FEE709D20008DE
:1001E000AD01000810B5431A934209D2831888184C
:1001F00003E010F8011D03F8011D521EF9D210BDD5
:1002000040EA01039B0703D009E008C9121F08C098
:10021000042AFAD203E011F8013B00F8013B521E18
:10022000F9D210BDD2B201E000F8012B491EFBD279
:1002300070470022F6E710B513460A4604461946F1
:10024000FFF7F0FF204610BD421C10F8011B0029EB
:10025000FBD1801A704730B504460020034600E009
:100260005B1C934203D2E05CCD5C401BF8D030BDF8
:10027000034611F8012B00F8012B002AF9D118468A
:1002800070472DE9FE4F804681EA0300C00F0C46FF
:10029000009021F0004123F00045B8EB0200A94195
:1002A00005D24046214690461C460B46024623F0A6
:1002B0000040104347D0270DC7F30A00C3F30A518B
:1002C0000290401A019040286BDAC3F3130040F407
:1002D000801B0098924620B10023D2EB030A63EB07
:1002E0000B0B01985946C0F14002504600F02AF924
:1002F00006460D4650465946019A00F042F910EB69
:1003000008006141002487EA115284EAE7731A4326
:1003100040D0009A62B3019A012A4FEA075215DCD5
:10032000001B61EB02014FF0004202EA0752CDE9E7
:100330000042001C41F5801132462B4600F079F94D
:1003400003B0BDE8F08F40462146F9E7001B61EBA2
:100350000201001C41F5801300185B412018A2F532
:10036000001747EB030140EAD570B6196D4111E063
:100370006D084FEA360645EAC0754FEA0752001B82
:1003800061EB0201001C41F5801149084FEA300081
:100390000019514132462B4603B0BDE8F04F00F042
:1003A00039B90098012240000023D0EB020263EB30
:1003B000E073009821464FEAE074B8EB000061EB6F
:1003C0000401E9E783F000435BE781F0004158E76F
:1003D0002DE9FE4F81EA030404F0004421F00041BE
:1003E00000944FF0000B23F0004350EA01045ED06C
:1003F00052EA03045BD0C3F30A54C1F30A552C44F8
:10040000A4F2F3340194A0FB0254C1F3130141F4AC
:100410008011C3F3130343F4801301FB024400FB78
:10042000034E840A970A44EA815447EA8357A4FB9F
:10043000076802958D0A05FB07854FEA932C04FB9C
:100440000C542705029D4FEA065847EA1637B5EBCC
:1004500008056EEB070C870E920E47EA811742EAF9
:100460008312A7FB0201B6EB0B0164EB00042B0D1A
:1004700043EA0C335E1844EB1C50DA465146E7FB66
:100480000201C5F313044FEA0B3343EA14534FEA56
:100490000432019C43EA0603A4F10C040294009C7C
:1004A000CDE900B400F0C5F803B0BDE8F08F00203E
:1004B0000146F9E700F0004230F000400AD0C10DDB
:1004C00001F56071C0F3160042EA0151C20840070D
:1004D00011437047002001467047000030B5041EEC
:1004E00071F1000404DB4FF00044404264EB010171
:1004F000141E73F1000405DB1C464FF0004352420A
:1005000063EB0403994208BF904230BD01F0004301
:1005100030B421F0004150EA010206D00A0DA2F5E4
:100520006072C1F31301002A02DC30BC0020704766
:10053000440F44EAC104C100E01830BC00EBC250D3
:1005400000F031B8202A04DB203A00FA02F1002042
:1005500070479140C2F1200320FA03F31943904001
:100560007047202A04DB203A21FA02F0002170476C
:1005700021FA02F3D040C2F120029140084319460B
:100580007047202A06DBCB17203A41FA02F043EAF3
:10059000E07306E041FA02F3D040C2F1200291403C
:1005A0000843194670470029A8BF7047401C4900FE
:1005B00008BF20F00100704710B4B0FA80FC00FAC8
:1005C0000CF050EA010404BF10BC704749B1CCF1F3
:1005D000200421FA04F411FA0CF118BF012121437F
:1005E0000843A3EB0C01CB1D4FEA00614FEA10203A
:1005F00042BF002010BC704700EBC35010440029DC
:10060000A4BF10BC7047401C490008BF20F0010087
:1006100010BC704710B5141E73F1000408DA401CBA
:1006200041F1000192185B411A4301D120F0010011
:1006300010BD2DE9F04D92469B4611B1B1FA81F201
:1006400002E0B0FA80F220329046FFF77BFF0446CA
:100650000F4640EA0A0041EA0B0153465A46084356
:1006600013D0114653EA010019D0C8F14002504698
:10067000FFF777FF05460E46504659464246FFF7BC
:1006800061FF084305D0012004E020463946BDE85B
:10069000F08D0020054346EAE0762C4337430A9864
:1006A0006305E40AA0EB08000022FD0A44EA47546F
:1006B0000A3002D500200146E9E701051019694119
:1006C000DDE9084500196941BDE8F04DA2E70000E9
:1006D000064C074D06E0E06840F0010394E807008F
:1006E00098471034AC42F6D3FFF764FDB4AD01086F
:1006F000D4AD010870B58C1810F8015B15F0070334
:1007000001D110F8013B2A1106D110F8012B03E0AA
:1007100010F8016B01F8016B5B1EF9D12B0705D4B2
:100720000023521E0DD401F8013BFAE710F8013BFB
:10073000CB1A921C03E013F8015B01F8015B521E17
:10074000F9D5A142D8D3002070BD70B50546AC6B79
:10075000206C00F0500050BB206C40F4007020640E
:100760002068806800F04050E8B9A069D8B92068D6
:10077000C06A00F4700020B12068806800F48060D6
:1007800088B92068406820F0200021684860206C0B
:1007900020F480702064206C00F4805018B9206C24
:1007A00040F001002064204607F06AFC03E0A06BE3
:1007B000C16C2846884770BD70B50546AC6B4020BB
:1007C0002064606C40F004006064204607F05AFC2E
:1007D00070BD70B50446A56B284607F052FC70BD8D
:1007E0005A49096821F44031594AC2F804131146A4
:1007F000D1F8041342681143544A116001684968F2
:1008000021F480710268516001684A68016942EA16
:100810000121026851600168496821F04071026855
:10082000516001684968826811430268516001683B
:10083000896821F400610268916001688968C26872
:10084000114302689160434A816A914218D001685D
:10085000896821F070610268916001688968826A24
:100860001143026891600168896821F04051026873
:10087000916001688968C26A1143026891600BE067
:100880000168896821F07061026891600168896877
:1008900021F04051026891600168896821F00201ED
:1008A0000268916001688A68816942EA41010268D0
:1008B0009160016AD1B10168496841F40061026840
:1008C00051600168496821F4604102685160016823
:1008D0004A68416A491E4FF4604393FAA3F3B3FA9E
:1008E00083F399400A4301684A6005E0016849685A
:1008F00021F40061026851600168C96A21F4700145
:100900000268D1620168CA6A818B491E42EA0151BC
:100910000268D1620168896821F4007102689160FF
:1009200001688A68016B42EA4121026891600168AE
:10093000896821F480610268916001688A68416970
:1009400042EA81210268916070470000042301405F
:10095000002001400100000F10B504461048406916
:1009600020F010000E49486120460FF007F90C48AE
:10097000406940F020000A494861082015F086FFD0
:100980000748406920F0200005494861082015F01B
:100990007DFF0BF075FF034908600846006810BD35
:1009A000001002407800002010B5044600203B49AA
:1009B00008603B4908600CE02046FFF7CDFF39494D
:1009C000374A126841F8220035480068401C344913
:1009D0000860334800680628EED3002030490860DC
:1009E00035E02F480068401C2F49086026E02D485C
:1009F0002B49096850F821102B4A126850F8220040
:100A0000814216D927482649096850F8210027490C
:100A1000086024482449096850F821002149204AE7
:100A2000126841F82200214800681F4A126841F804
:100A300022001D480068401C1B4908601A480068D5
:100A40000628D4D316480068401C1549086014488D
:100A500000680528C5D3002010490860012010490E
:100A600008600EE00F480E49096850F821000B4954
:100A7000096808440949086009480068401C084999
:100A80000860074800680528ECD30448006880081F
:100A9000064908600846006810BD00008400002078
:100AA0007C000020041F002080000020880000201F
:100AB0003EB50DF01BFC054609490EF059F90DF045
:100AC00015FC05460748002100912B46044ACDE954
:100AD00001101021044815F0D7FC044620463EBD05
:100AE0004DC20008E0790020BC700108002800DC3D
:100AF000404270472DE9F04104460D4616461F4618
:100B00002A2015F047FFC4F30F2015F027FFA0B2ED
:100B100015F024FFC6F30F2015F020FFB0B215F03A
:100B20001DFF2B2015F036FFC5F30F2015F016FF23
:100B3000A8B215F013FFC7F30F2015F00FFFB8B2DE
:100B400015F00CFF2C2015F025FFBDE8F08100000A
:100B500010B5002005F050FE00F058FE04F0B6FF7E
:100B6000012005F049FE02F03FFC04F0AFFF02480F
:100B700002F022FD10BD00003C0000202DE9F041F4
:100B800080460D4616461C46069FB1B2A8B200F03C
:100B9000D1FD2C2015F0FEFE09E02188080A15F091
:100BA000DDFE208815F0DAFE7F1E6D1CA41C002FD0
:100BB000F3DCBDE8F08100002DE9FF4F83B08146F2
:100BC0000E461C46DDE9117A109DDAF8000002900D
:100BD000DAF8040001902E4432480068007C00F0EE
:100BE000030030B1012836D002281CD0032855D18B
:100BF00030E000BF207880222A41104008B10198DF
:100C000000E0029803463146761C4846059A00F0FB
:100C100081FE681C0546082801D10025641C781E49
:100C2000071EE7D13AE000BF207880212941084023
:100C300028B131464846019B059A00F06BFE761CB0
:100C4000681C0546082801D10025641C781E071E73
:100C5000EAD123E000BFD9F81010886880478046A9
:100C600000BF207880212941084060B131464846C4
:100C7000059A00F01DFB83468BEA0803314648467F
:100C8000059A00F047FE761C681C0546082801D12D
:100C90000025641C781E071EE3D100BF00BF07B00B
:100CA000BDE8F08F3C0200202DE9FF4F81B00F46D8
:100CB0009846DDE90F9A98F800B00E9D0E9D2F44DE
:100CC00053480068007C00F0030010B102284BD1AB
:100CD0004BE0BAF1000F25D000BFC5F1030044007E
:100CE000C4F10601C020084100EA0B0020FA04F616
:100CF0005AF82600009039467F1CDDE90030039A3F
:100D000000F008FE681C0546042805D1002508F1FE
:100D10000100804690F800B0A9F10100B0F100098F
:100D2000DBD121E000BFC5F103004400C4F106019E
:100D3000C020084100EA0B0020FA04F639467F1C67
:100D40003346039A019800F0E5FD681C0546042827
:100D500005D1002508F10100804690F800B0A9F106
:100D60000100B0F10009DED14DE0BAF1000F26D04C
:100D700000BFC5F103004400C4F10601C0200841D2
:100D800000EA0B0020FA04F646B15AF8260000905B
:100D90003946DDE90030039A00F0BCFD7F1C681C79
:100DA0000546042805D1002508F10100804690F889
:100DB00000B0A9F10100B0F10009DAD122E000BFD2
:100DC000C5F103004400C4F10601C020084100EA57
:100DD0000B0020FA04F62EB133463946039A0198E7
:100DE00000F098FD7F1C681C0546042805D10025ED
:100DF00008F10100804690F800B0A9F10100B0F1BF
:100E00000009DDD100BF00BF05B0BDE8F08F0000D4
:100E10003C0200202DE9F04107460D4690461C4655
:100E2000069E08E0424629463846236800F072FDD7
:100E3000761E6D1C241D002EF4DCBDE8F081000040
:100E40002DE9FF4F81B00F469846DDE90F9A98F8DB
:100E500000B00E9D0E9D2F4453480068007C00F0AA
:100E6000030010B102284BD14BE0BAF1000F25D09E
:100E700000BFC5F101008400C4F10401F020084165
:100E800000EA0B0020FA04F65AF8260000903946D2
:100E90007F1CDDE90030039A00F03CFD681C05462C
:100EA000022805D1002508F10100804690F800B025
:100EB000A9F10100B0F10009DBD121E000BFC5F1CB
:100EC00001008400C4F10401F020084100EA0B0095
:100ED00020FA04F639467F1C3346039A019800F045
:100EE00019FD681C0546022805D1002508F10100FE
:100EF000804690F800B0A9F10100B0F10009DED100
:100F00004DE0BAF1000F26D000BFC5F1010084000A
:100F1000C4F10401F020084100EA0B0020FA04F6B5
:100F200046B15AF8260000903946DDE90030039AB0
:100F300000F0F0FC7F1C681C0546022805D1002546
:100F400008F10100804690F800B0A9F10100B0F16D
:100F50000009DAD122E000BFC5F101008400C4F12C
:100F60000401F020084100EA0B0020FA04F62EB13B
:100F700033463946039A019800F0CCFC7F1C681C6C
:100F80000546022805D1002508F10100804690F8A9
:100F900000B0A9F10100B0F10009DDD100BF00BF30
:100FA00005B0BDE8F08F00003C0200202DE9F047BD
:100FB00081460F4692461C46DDE9085826480068DF
:100FC000007C00F0030010B1022841D11EE0B8F10E
:100FD000000F0ED00AE0267858F8263052463946DF
:100FE000484600F097FC6D1E7F1C641C002DF2DC4F
:100FF0000BE008E0237852463946484600F08AFC68
:101000006D1E7F1C641C002DF4DC21E0B8F1000F84
:101010000FD00BE0267836B158F8263052463946C4
:10102000484600F077FC6D1E7F1C641C002DF1DC2F
:101030000DE00AE026782EB133465246394648463E
:1010400000F068FC6D1E7F1C641C002DF2DC00BFEC
:1010500000BFBDE8F08700003C0200202DE9FF4FF3
:1010600083B015461E46DDE914BADDE91297DDF8B6
:101070004080119808283FD006DC012809D00228BA
:1010800018D0042863D126E0102844D020285ED14F
:101090004FE000240BE062193B46CDE900B6CDF8E5
:1010A00008A0DDE90301FFF787FD4F44641C4445B8
:1010B000F1DB4CE000240BE062193B46CDE900B6C1
:1010C000CDF808A0DDE90301FFF7EEFD4F44641CF5
:1010D0004445F1DB3BE000240BE062193B46CDE9DF
:1010E00000B6CDF808A0DDE90301FFF7A9FE4F44E3
:1010F000641C4445F1DB2AE0002409E062193B4608
:10110000CDE9006ADDE90301FFF750FF4F44641C9D
:101110004445F3DB1BE0002408E062193B460096DF
:10112000DDE90301FFF72AFD4F44641C4445F4DB6D
:101130000DE0002408E062193B460096DDE903015A
:10114000FFF768FE4F44641C4445F4DB00BF00BF5A
:1011500007B0BDE8F08FF8B505460E4614461F46A9
:101160003B46224631462846009400F00FF8F8BD71
:10117000F8B506460C4617461D4623463A46214614
:101180003046009500F002F8F8BD00002DE9F05F50
:1011900083460C4615461E460A9F4FF0000A3B4602
:1011A000324629462046FFF7A5FC2C2015F0F2FB1D
:1011B000301B401C1FFA80FA1FFA85F81BE04FF025
:1011C000000912E00E490968C96B0968C1F30F20D4
:1011D00015F0C4FB0A490968C96B098888B215F083
:1011E000BDFB09F101001FFA80F9D145EADB08F1E6
:1011F00001001FFA80F8B845E1DDBDE8F09F00006E
:101200003C02002002460020704700000246A1F187
:101210000900082813D2DFE800F00406080A120CBF
:101220000E10084870470848FCE70848FAE70848E5
:10123000F8E70848F6E70848F4E70848F2E700202E
:10124000F0E7000073190008991900083519000823
:10125000E5120008FD170008ED170008D518000872
:1012600003460A4699680F2A1FD2DFE802F01E08DB
:101270000A0C0E1E1E1E10121416181A1C004868A6
:1012800070478868FCE7C868FAE70869F8E7886982
:10129000F6E70020F4E70120F2E70120F0E7002064
:1012A000EEE70020ECE70020EAE74FF0FF30E7E749
:1012B0002DE9F04107460C4615462946204600F028
:1012C0001DFA06463046BDE8F081826800230B8097
:1012D0004B8093895B1E1BB28B80138A5B1E1BB2F3
:1012E000CB80704770B50446204600F009F80546EB
:1012F00000220121A0690AF02FFA0543284670BD9B
:1013000070B50446A06858B91C2003F09DFCA0608D
:10131000A56821698868804706460AF005FBA86130
:10132000A06808B9012070BD0020FCE770B5044634
:1013300000250021084600F0FDF92C2015F02AFBBD
:1013400000BF06E0201215F009FB204615F006FB51
:101350006D1CB5F5963FF5D370BD000070B5044621
:101360000D462946204600F0E5F92C2015F012FB29
:1013700004490988081215F0F1FA0248008815F0AE
:10138000EDFA70BDE400002000B587B03448007865
:10139000002863D101203249087000BF002001906D
:1013A0003048006840F008002E4908600846006890
:1013B00000F00800019000BF00BF4FF40050029001
:1013C00001200390002004900220059002A92648E5
:1013D00007F032FC00BF002001902248006840F076
:1013E0000800204908600846006800F008000190E5
:1013F00000BF00BF881402900120039000200490D9
:101400000220059002A9184807F016FC00BF002032
:1014100001901448006840F0040012490860084632
:10142000006800F00400019000BF00BF042002909B
:1014300001200390002004900220059002A90B488F
:1014400007F0FAFB00220421084807F003FD0122FF
:101450000421064807F0FEFC0BF004FE07B000BDB7
:101460001402002030380240000C02400008024004
:1014700010B5FFF789FF002204218E4807F0EAFC2F
:10148000CF2015F087FA002015F068FAC12015F07A
:1014900065FA302015F062FAED2015F07BFA642031
:1014A00015F05CFA032015F059FA122015F056FADF
:1014B000812015F053FAE82015F06CFA852015F01C
:1014C0004DFA102015F04AFA7A2015F047FACB2091
:1014D00015F060FA392015F041FA2C2015F03EFA8B
:1014E000002015F03BFA342015F038FA022015F0F0
:1014F00035FAF72015F04EFA202015F02FFAEA20E1
:1015000015F048FA002015F029FA002015F026FA07
:10151000C02015F03FFA1B2015F020FAC12015F06D
:1015200039FA012015F01AFAC52015F033FA3020E7
:1015300015F014FA302015F011FAC72015F02AFA28
:10154000B72015F00BFA362015F024FA082015F014
:1015500005FA3A2015F01EFA552015F0FFF9B120D2
:1015600015F018FA002015F0F9F91A2015F0F6F91F
:10157000B62015F00FFA0A2015F0F0F9A22015F0A8
:10158000EDF9F22015F006FA002015F0E7F9262013
:1015900015F000FA012015F0E1F9E02015F0FAF954
:1015A0000F2015F0DBF92A2015F0D8F9282015F0C6
:1015B000D5F9082015F0D2F90E2015F0CFF9082042
:1015C00015F0CCF9542015F0C9F9A92015F0C6F989
:1015D000432015F0C3F90A2015F0C0F90F2015F0CB
:1015E000BDF9002015F0BAF9002015F0B7F9002078
:1015F00015F0B4F9002015F0B1F9E12015F0CAF9A1
:10160000002015F0ABF9152015F0A8F9172015F0FA
:10161000A5F9072015F0A2F9112015F09FF9062071
:1016200015F09CF92B2015F099F9562015F096F934
:101630003C2015F093F9052015F090F9102015F0D5
:101640008DF90F2015F08AF93F2015F087F93F201A
:1016500015F084F90F2015F081F92B2015F09AF977
:10166000002015F07BF9002015F078F9012015F025
:1016700075F93F2015F072F92A2015F08BF900203A
:1016800015F06CF9002015F069F9002015F066F9E5
:10169000EF2015F063F9112015F07CF9C82015F042
:1016A000FBF8292015F076F94FF6FF70FFF73EFEA4
:1016B00010BD00000008024010B5012251030D4882
:1016C00007F0C8FBFF200C49C86000BF0A488068CB
:1016D00000F002000028F9D000200749C86000BFD0
:1016E0000548806800F002000028F9D00248C06870
:1016F000C0B210BD000C02400050014070B504465D
:101700000D46A9B2A0B200F015F82E2015F042F94E
:10171000FFF7D2FFFFF7D0FFFFF7CEFF00F07C000E
:101720004602FFF7C9FF46EA0016FFF7C5FF46EA83
:10173000A00070BD70B504460D462A2015F02AF9A8
:10174000201215F00BF9E0B215F008F92B2015F076
:1017500021F9281215F002F9E8B215F0FFF870BD72
:1017600010B5002005F048F86FF07F400CF082FBC8
:101770006FF07F400DF034FB12480AF06BFF124807
:1017800002F0C2F90F480AF065FF104800F01AFC99
:101790000F4800F0FFFC0F4800F018FE0E480BF059
:1017A00065FB0E480BF050FC0D4808F0A7FD0D48F6
:1017B0000BF026F8FFF77CF90B49486004F086F936
:1017C00010BD0000D1C500086D370008F91C0008E5
:1017D000A520000821230008B9CC00081DCF00086F
:1017E000BDA2000849C700087C7A002010B5044655
:1017F00000220621A06909F0AFFF10BD10B5044614
:1018000000220521A06909F0A7FF10BD10B52C48E2
:1018100000F0D2F82A4800782A4908722A484088FD
:1018200027494988884205DD274840882449498856
:10183000401A04E02248408823494988401A234935
:101840000880214880881E498988884205DD1E4815
:1018500080881B498988401A04E0194880881A4901
:101860008988401A1A4908801648007A144909885C
:10187000884207D1154800881E2803DC14480088D8
:101880001E281BDD0E4800780E4908720C4800889F
:1018900068B10B484088C0F1F000086008488088B3
:1018A000C0F5A0704860084605F08EF906E00548CE
:1018B00005F08AF9002003490860486010BD000067
:1018C00046010020341F00203E0100204E01002070
:1018D000500100207CB504460D46164600200090BD
:1018E00001908DF8045000966A460421A06909F021
:1018F00033FF7CBD7CB504460D46164600200090A3
:101900000190009501966A460321A06909F024FF21
:101910007CBD00002DE9F04107460C4615461E46E9
:1019200003490E80A9B2A0B2FFF718FDBDE8F0810F
:10193000E40000202DE9FC4105460E461746002034
:10194000009001902846FFF7DBFCA86878B1AC68EE
:10195000606908B9304600E0606960616660A76050
:10196000009601976A460721A86909F0F5FEBDE8CF
:10197000FC81F8B504460D46002000902046FFF794
:10198000BFFCA06838B1A668356000956A460221A0
:10199000A06909F0E1FEF8BD2DE9F04105460E46CB
:1019A00017462846FFF7ACFCA86818B1AC68E6609B
:1019B00027616661BDE8F0812DE9FC410446464897
:1019C00000680169822088472080208800287DD017
:1019D000414800686A4601A9436982209847BDF8DA
:1019E0000000A0F5B47080B20090BDF800000B219B
:1019F00090FBF1F086B2002E01DC002607E03748AC
:101A00000088864203DD35480088401E86B2009675
:101A1000BDF8040040F6B831884207DCBDF8040088
:101A200040F61E71081A80B2019006E0BDF804006D
:101A300040F6D861081A80B20190BDF804000F2169
:101A400090FBF1F085B2002D01DC002507E0244871
:101A50000088854203DD22480088401E85B201953A
:101A6000BDF804001F490968884205D9BDF8040083
:101A70001C490968401A04E01A480068BDF80410BF
:101A8000401A87B2BDF8000017490968884205D995
:101A9000BDF8000014490968401A04E012480068C3
:101AA000BDF80010401A1FFA80F807EB080005285F
:101AB00007DDBDF804000B490860BDF800000A49C5
:101AC0000860084800886080074800E001E000885E
:101AD000A080BDE8FC810000180200201E0200204A
:101AE0001C020020200200202402002070B50446C1
:101AF0000D4601260E4804800E4805800E484168B8
:101B00008220884740F61101884203D10A480B49D8
:101B1000086000264EB9094800680168822088479D
:101B200006480068C16882208847304670BD0000C2
:101B30001C0200201E020020E800002018020020E5
:101B40002DE9F04104460D46164632462946204608
:101B5000FFF7AEFB0746216988688047804687EA21
:101B60000803324629462046FFF7D4FEBDE8F0813F
:101B700038B545680446014628460BF0D9FE0028D2
:101B80002BD02068304A11280DD006DC0B2825D038
:101B90000E2833D00F2852D112E0282849D0B0F5B2
:101BA000107F4CD108E09268002A16D021462846C2
:101BB00001B0BDE830401047214628465268F7E79B
:101BC000284603F0D9F80090406E0468684603F098
:101BD0001DF9002C01D02846A04738BD284603F047
:101BE000CBF80090683003F019F8009803216C30AE
:101BF00003F01CF8684603F009F920E0E168486842
:101C000009680D2902D0202913D105E0002810DD34
:101C1000284612F010F806E0002804DD2846BDE84A
:101C2000384012F008B82846BDE83840022112F0CA
:101C300018B8E06818B90021284600F0E8F92046F5
:101C4000BDE838400CF04CBA0C030020F0B5044657
:101C500085B08069B4F90850668A0027CDE902652D
:101C6000CDE900170490B4F90C00B4F91060C11864
:101C7000B4F90A00B4F90E50104433462A4600F075
:101C800007F80546616800F0CBF905B02846F0BDBD
:101C9000F0B585B00C46DDE90D51DFF854C04C318C
:101CA000DDE90A67CDE902C12146CDE900670CF004
:101CB00069F9040018D003F05FF810222946049057
:101CC0000BF0DCFF049830220A493430FEF78AFA20
:101CD000084D04990C3D2868486604A803F096F85E
:101CE000286841682046884705B02046F0BD0000BE
:101CF000711B000818030020F0B5044680688B496A
:101D000089B051F82050606800287DD0052804D0A3
:101D100006287AD0122879D1AEE0E86900284FD0A1
:101D200095E80E008DE80F0004F110010FC905F0D1
:101D3000CBFC002655F8260004F080FDA169E86977
:101D40000A1A216901446069304403F0C1FDA169A8
:101D5000E8690A1A21690144E069801B03F0B8FDB3
:101D6000E169E8690A1A616901442069304403F0B5
:101D70004FFEE169E8690A1A61690144A069801BA4
:101D800003F046FE761C022ED4DBA86804F056FD54
:101D9000E069E9696669431A206942183144801C88
:101DA000521E03F0B5FEE169E869A2690B1A616988
:101DB0000144101A401C921E03F0AAFEEE6913E0C3
:101DC0005FF0000655F8260004F038FDE069831B3B
:101DD000A069821B606981192069304403F0DAFD33
:101DE000761C022EEEDB0226D5E90301CDE90001C7
:101DF0006169E06908444310A069891C821B20695D
:101E0000304403F031FD02E089E012E08AE0D5E9D8
:101E10000501CDE90001E36960690121184401EB86
:101E20006001A0699B1E821B2069304403F01CFDE9
:101E300078E0206802F0A0FF049020680DF0AEFB6F
:101E400040B1A06808B1002008E00498006F28B1F4
:101E5000012003E00498406F00B10220049901EBD7
:101E60008000C56E04A802F0D1FF00231A46284660
:101E7000216803F0BDFA55E0206802F07DFF049070
:101E8000866EEEB3B0F95C70A168D1B3032942D07D
:101E90005FF0000100EB8101406D0C6C04F0D8FC98
:101EA000204604F0CBFC05A803F0D2FEBDF81410C8
:101EB000A88B0144ADF81410BDF81810081AADF83D
:101EC0001800BDF81600801CADF81600BDF81A0009
:101ED000801EADF81A000498B0F96020B0F95E10C9
:101EE00005A804F0BBFB04A802F090FF022004F058
:101EF000F1FC304602F040FF3A4605A9079001E0A8
:101F00000BE006E003F09EFB0DF11C0002F07EFFEB
:101F100008E00121BEE70221BCE704A8F6E720683B
:101F20000CF0F2FF09B00020F0BD0000DC9D0108BC
:101F30002DE9FC4115460E4600281DD002F01CFF7D
:101F40000190806E002798B102F016FF0090FEF716
:101F50007BF90446681E844200DD04462246304672
:101F60000099FEF73FF9684602F050FF375500E050
:101F7000377001A802F04AFFBDE8FC8170B5164633
:101F80000C46054619463046049A03F015FA0246F7
:101F900021462846BDE8704000F06AB8F8B51546FD
:101FA0000C4606000DD002F0E7FE0090032C02D292
:101FB00000EB84004563684602F028FF30460CF0D1
:101FC00070FDF8BD044A0349116004494A6A486239
:101FD00010467047480300200C030020180300201F
:101FE00000294FF0100101D00BF032BD0BF08CBC7A
:101FF00038B50D46040009D002F0BEFE00904565DC
:10200000684602F003FF20460CF04BFD38BD4FF44C
:1020100080720029114601D00BF01ABD0BF074BC80
:102020002DE9FF410E4605004FF001041CD002F0DF
:10203000A3FE0190876E01A8009702F0E7FE3146EB
:10204000684605F04FFE78B100980024B84208D0E9
:10205000284602F091FE01900099816601A802F0E5
:10206000D5FE28460CF01DFD04B02046BDE8F081E9
:10207000F8B515460C46060013D002F07DFE009020
:10208000032C0BD200EB84006C3002F0C7FD0098EB
:1020900000EB8400C56630460CF003FD684602F094
:1020A000B5FEF8BD2DE9FF470446006810B10DF0FC
:1020B00075FA68B10022314850F8221060680A2889
:1020C00041D007DCF0B306280DD0072854D106E034
:1020D0000122F0E712280AD019284DD137E0204616
:1020E0000EF0F4FB48E020460FF0D0F844E0206802
:1020F00002F042FE0290B0F9548090F85650476CBE
:10210000466B02A802F082FE206800F039F8814692
:1021100068460CF0CFF8BDF8001009EB0500084444
:10212000ADF80000246A304604F092FB022004F06F
:10213000D1FB384604F082FB42466946204603F054
:1021400081FA19E007E020460FF05CFC14E0886992
:1021500004B0BDE8F08720680CF0D6FE206802F0DD
:102160000BFE0390B0F90610B0F90220891A491C41
:10217000C16703A802F04AFE0020E9E7EC9D0108D0
:1021800038B502F0F9FD0090C46F684602F03EFEDB
:10219000204638BD044A034911600449CA69C86130
:1021A00010467047D4030020D0070020D407002039
:1021B00000B589B024216846FEF73BF8192001904C
:1021C00003480068806841686846884709B000BDD8
:1021D000D007002010B5024806F028FA10BD000014
:1021E000F80B002010B5024806F020FA10BD0000E0
:1021F000280A002010B5024806F018FA10BD0000A9
:10220000580C00200146087810381823B0FBF3F270
:102210000848805CC865032A05D908686FF309007F
:10222000001D886503E008686FF309008865886D04
:1022300070470000EC6F0108014600208A6A8B6934
:1022400003BB32B1012A0CD0022A10D0032A17D1C5
:1022500015E0CB6A03F08073B3F1807F00D10120D9
:102260000FE0CB6AB3F1C07F00D1012009E0CB6A57
:1022700003F08073B3F1807F00D1012001E000E022
:1022800000BF35E08B69B3F5005F1BD132B1012A85
:1022900006D0022A0CD0032A12D10BE0012010E054
:1022A000CB6A03F08073B3F1807F00D1012008E096
:1022B000012006E0CB6AB3F1C07F00D1012000E02D
:1022C00000BF15E032B1012A05D0022A04D0032A4A
:1022D0000CD103E000BF00BF012008E0CB6A03F08F
:1022E0008073B3F1807F00D1012000E000BF00BF08
:1022F000704730B50468246824F4802405682C6095
:10230000046863608468402C04D10468A260046897
:10231000E16003E00468A1600468E26030BD000091
:10232000F8B50546006802F027FD0090448ED0F80D
:102330008860684602F06AFD06B1012604F00104D7
:1023400028680DF02BF90EB1002006E00CB1012039
:1023500003E008B1022000E003201B4951F82010DF
:10236000686858B302280CD0052802D0122828D15A
:1023700003E028460EF0D6FA23E028460FF01FFFB0
:102380001FE06A69E8694FF0FF33801AA0F1080284
:1023900003EB6204421CAB69001B4510A3EB620611
:1023A000C86904F04BFA06E03219311B284603F0E5
:1023B0008FFA641E6D1C002CF6DA02E028680CF01F
:1023C000A3FD0020F8BD0000F49D0108044A034964
:1023D000116004490A6B086310467047200400200E
:1023E000100800201408002038B50D46002402F023
:1023F000C3FC0090C06B294602F0A0FD054668466C
:1024000002F004FD1DB1284602F0B6FC0446204649
:1024100038BD2DE9FC470E465FEA000978D002F08E
:10242000ABFC009090F85470D0F85880456BC46CA9
:10243000684602F0EBFCB8F1000F04D03146484684
:102440004246904761E0122E18D006DC082E43D099
:10245000102E3CD0112E06D112E0132E21D01D2EAD
:1024600043D01E2E3DD0202E4FDB17B148460EF034
:10247000C6F8B1B2484611F02BFA60B3611C27E0F0
:102480004DB3284602F078FC05462146019004F041
:10249000F5FB4419204604F0B3FB01462346012214
:1024A00010E0C5B1284602F067FC054621460190C0
:1024B00004F0E4FB4419204604F0A2FB0146234645
:1024C0004FF0FF3248460DF0EDFD01A81BE0611E04
:1024D000484600F0C7F918E0BCB1611E484600F05C
:1024E000C1F948460EF08BF80FE0484602F044FC74
:1024F0000090012F0ED0012180F85410214648464B
:1025000000F0B0F9684602F081FC48460CF0C9FAC8
:10251000BDE8FC87002180F85410F3E7FEB544685D
:10252000054620460DF03AF80646294620460BF0AF
:10253000FFF9002837D028680F2830D004DC0B289A
:1025400032D00E2853D13AE0A0F58070133804D071
:10255000A0F580702D384AD110E020460CF0D4FB55
:102560002046002112F008F9204602F005FC0190F7
:10257000C06F00210CF0AEFB01A81DE0E86860B15F
:10258000017A29B10168204600F0A2F8012100E09B
:10259000022120460CF0DEFA29E00321F9E70121AF
:1025A000204612F0E9F8FEBD204602F0E5FB00905F
:1025B000343002F033FB684602F028FC17E0B6B175
:1025C000E8684168002912DD01681B290FD006DC8C
:1025D00009290CD00A290AD00D2904D107E02129A4
:1025E00005D0222903D02046FFF713FFFEBD284661
:1025F0000BF076FDFEBDF0B587B004460DF1080C7A
:10260000D4E90567B0F90850408A8CE8E100002061
:10261000CDE90010B4F90C00B4F91060C118B4F998
:102620000A00B4F90E50104433462A4600F008F868
:10263000050002D0618A00F005F907B02846F0BD18
:10264000F0B585B00D46DDE90D640F9FDDE90AC1E7
:1026500041F48051DFF870E0CDE900C15837CDE991
:1026600002E729460BF08EFC05002AD002F084FB1D
:102670001022314604900BF001FB04981C221349F0
:102680006030FDF7AFFD0499012081F85500601C12
:1026900000D0012081F88000002C00DC082424B246
:1026A0000C8700204887486304A8641C02F0AEFB36
:1026B0002146284611F011F818B928460BF044FDC0
:1026C000002505B02846F0BD1D250008DC040020CB
:1026D0002DE9F04186B00C46060050D002F04CFBCC
:1026E0000090406B98B302F047FB03900098806E17
:1026F00004F0AEF8804630460BF02FFF07460398F3
:1027000003F0FAFA0546009890F8601001F0030112
:10271000012916D002290DD0416EC06A0068084414
:10272000241A641E039805F087F90146002C0FDA7D
:10273000002115E0781B401C00EBD070A4EB600476
:10274000F0E7406E791B081A241A641CEAE713E0CC
:10275000AC4205DC02462146039805F00DF901461E
:10276000304600F07FF803A802F050FB404604F02A
:102770006FF830460CF095F9684602F047FB06B05A
:10278000BDE8F0812DE9FC4788465FEA00094FF07B
:10279000000655D002F0F0FA0090B0F93850446BC2
:1027A000684602F033FB0027B8F1000F3ED04CB171
:1027B000204602F0E1FA0190FDF746FD461C01A813
:1027C00002F024FB404605F037F90446A84200DD3C
:1027D0002C462146404604F051FA451CA91B4846A8
:1027E00011F012F908B3484602F0C6FA0090406BA7
:1027F00002F0C2FA2A4641460190FDF7F3FC019827
:10280000284400F8017C0098C464B0F938108C4268
:1028100005D190F85410012901D1641EC46401A8A7
:1028200002F0F4FA684602F0F1FA06E0009834305B
:1028300002F0F4F900984787C76448460CF031F974
:10284000BDE8FC8738B50C4605000AD002F094FAC2
:10285000009018B1046628460CF023F9684602F08F
:10286000D5FA38BD1CB50C4602F086FA0090406BD4
:10287000F0B102F081FA019005F0DEF8009991F8CC
:10288000542002B10122002C00DA0024844200DD31
:102890000446B1F93800801AA04200DA0446C86C38
:1028A000A04200D0CC640020086501A802F0AEFA76
:1028B000684602F0ABFA1CBDF0B504460F4615465B
:1028C0001E463946022000F0D1FC2146032000F0CC
:1028D000CDFC3146062000F0C9FC2946072000F057
:1028E000C5FC0F204FF0C0410880F0BD10B500209E
:1028F000314908703148006800F00800002853D1C1
:102900002F49081F0AF020F800284DD001202A493D
:1029100008702B48001F00682A49096888420DD9B1
:102920002748001F006827490968401A4FF47A7148
:10293000484325490968B0FBF1F00CE02048001F2E
:10294000006820490968081A4FF47A7148431E4903
:102950000968B0FBF1F01D4908601948001F406884
:102960001B49096888420DD91548001F406818495D
:102970000968401A4FF47A71484316490968B0FB58
:10298000F1F00CE00E48001F406811490968081A70
:102990004FF47A7148430F490968B0FBF1F00B49D5
:1029A00048600548007810BD00200849086048606C
:1029B00001480078F7E70000D0000020100C02402A
:1029C000E01E00206800002060000020F01E0020B3
:1029D0006C000020640000202DE9F04180460C4688
:1029E00016461D46069F3146204608F0C9FC0F20BA
:1029F0004FF0C041088005E02888044908807F1E08
:102A0000641CAD1C002FF7DCBDE8F08100001060F5
:102A10002DE9FF4F83B081460E461C46DDE9117A51
:102A2000109DDAF800000290DAF8040001902E44BC
:102A300032480068007C00F0030030B1012836D035
:102A400002281CD0032855D130E000BF2078802216
:102A50002A41104008B1019800E00298034631462F
:102A6000761C4846059A00F04BFD681C0546082870
:102A700001D10025641C781E071EE7D13AE000BF93
:102A8000207880212941084028B131464846019BE1
:102A9000059A00F035FD761C681C0546082801D112
:102AA0000025641C781E071EEAD123E000BFD9F878
:102AB000101088688047804600BF20788021294117
:102AC000084060B131464846059A00F0F7FA83465F
:102AD0008BEA080331464846059A00F011FD761C42
:102AE000681C0546082801D10025641C781E071EB5
:102AF000E3D100BF00BF07B0BDE8F08F3C0200206B
:102B00002DE9FF4F81B00F469846DDE90F9A98F8FE
:102B100000B00E9D0E9D2F4453480068007C00F0CD
:102B2000030010B102284BD14BE0BAF1000F25D0C1
:102B300000BFC5F103004400C4F10601C0200841F4
:102B400000EA0B0020FA04F65AF8260000903946F5
:102B50007F1CDDE90030039A00F0D2FC681C0546BA
:102B6000042805D1002508F10100804690F800B046
:102B7000A9F10100B0F10009DBD121E000BFC5F1EE
:102B800003004400C4F10601C020084100EA0B0024
:102B900020FA04F639467F1C3346039A019800F068
:102BA000AFFC681C0546042805D1002508F101008A
:102BB000804690F800B0A9F10100B0F10009DED123
:102BC0004DE0BAF1000F26D000BFC5F1030044006C
:102BD000C4F10601C020084100EA0B0020FA04F607
:102BE00046B15AF8260000903946DDE90030039AD4
:102BF00000F086FC7F1C681C0546042805D10025D2
:102C000008F10100804690F800B0A9F10100B0F190
:102C10000009DAD122E000BFC5F103004400C4F18D
:102C20000601C020084100EA0B0020FA04F62EB18C
:102C300033463946039A019800F062FC7F1C681CF9
:102C40000546042805D1002508F10100804690F8CA
:102C500000B0A9F10100B0F10009DDD100BF00BF53
:102C600005B0BDE8F08F00003C0200202DE9F041E6
:102C700007460D4690461C46069E08E042462946F9
:102C80003846236800F03CFC761E6D1C241D002E87
:102C9000F4DCBDE8F08100002DE9FF4F81B00F4664
:102CA0009846DDE90F9A98F800B00E9D0E9D2F44CE
:102CB00053480068007C00F0030010B102284BD19B
:102CC0004BE0BAF1000F25D000BFC5F10100840030
:102CD000C4F10401F020084100EA0B0020FA04F6D8
:102CE0005AF82600009039467F1CDDE90030039A2F
:102CF00000F006FC681C0546022805D1002508F1F5
:102D00000100804690F800B0A9F10100B0F100097F
:102D1000DBD121E000BFC5F101008400C4F1040152
:102D2000F020084100EA0B0020FA04F639467F1C27
:102D30003346039A019800F0E3FB681C054602281D
:102D400005D1002508F10100804690F800B0A9F1F6
:102D50000100B0F10009DED14DE0BAF1000F26D03C
:102D600000BFC5F101008400C4F10401F020084156
:102D700000EA0B0020FA04F646B15AF8260000904B
:102D80003946DDE90030039A00F0BAFB7F1C681C6D
:102D90000546022805D1002508F10100804690F87B
:102DA00000B0A9F10100B0F10009DAD122E000BFC2
:102DB000C5F101008400C4F10401F020084100EADB
:102DC0000B0020FA04F62EB133463946039A0198D7
:102DD00000F096FB7F1C681C0546022805D10025E3
:102DE00008F10100804690F800B0A9F10100B0F1AF
:102DF0000009DDD100BF00BF05B0BDE8F08F0000C5
:102E00003C0200202DE9F04781460F4692461C46C1
:102E1000DDE9085826480068007C00F0030010B186
:102E2000022841D11EE0B8F1000F0ED00AE026784A
:102E300058F8263052463946484600F061FB6D1E70
:102E40007F1C641C002DF2DC0BE008E02378524666
:102E50003946484600F054FB6D1E7F1C641C002D53
:102E6000F4DC21E0B8F1000F0FD00BE0267836B18A
:102E700058F8263052463946484600F041FB6D1E50
:102E80007F1C641C002DF1DC0DE00AE026782EB1D9
:102E9000334652463946484600F032FB6D1E7F1CD1
:102EA000641C002DF2DC00BF00BFBDE8F08700000D
:102EB0003C0200202DE9FF4F83B015461E46DDE998
:102EC00014BADDE91297DDF84080119808283FD048
:102ED00006DC012809D0022818D0042863D126E096
:102EE000102844D020285ED14FE000240BE0621966
:102EF0003B46CDE900B6CDF808A0DDE90301FFF7B8
:102F000087FD4F44641C4445F1DB4CE000240BE09A
:102F100062193B46CDE900B6CDF808A0DDE9030112
:102F2000FFF7EEFD4F44641C4445F1DB3BE0002419
:102F30000BE062193B46CDE900B6CDF808A0DDE90B
:102F40000301FFF7A9FE4F44641C4445F1DB2AE06E
:102F5000002409E062193B46CDE9006ADDE903017E
:102F6000FFF750FF4F44641C4445F3DB1BE0002493
:102F700008E062193B460096DDE90301FFF72CFDEE
:102F80004F44641C4445F4DB0DE0002408E0621962
:102F90003B460096DDE90301FFF768FE4F44641CE1
:102FA0004445F4DB00BF00BF07B0BDE8F08FF8B5C3
:102FB00005460E4614461F463B46224631462846E5
:102FC000009400F00FF8F8BDF8B506460C46174619
:102FD0001D4623463A4621463046009500F002F849
:102FE000F8BD00002DE9F84380460C4615461E4604
:102FF000089F06480068C06B00683B463246294679
:103000000090204600F0CCF8BDE8F8833C02002098
:1030100002460020704700000246A1F1090008287E
:1030200013D2DFE800F00406080A120C0E1008485C
:1030300070470848FCE70848FAE70848F8E70848F6
:10304000F6E70848F4E70848F2E70020F0E7000058
:103050005F3500088535000821350008F13000088B
:10306000D9330008C9330008C134000803460A46B2
:1030700099680F2A1FD2DFE802F01E080A0C0E1E04
:103080001E1E10121416181A1C0048687047886813
:10309000FCE7C868FAE70869F8E78869F6E70020FE
:1030A000F4E70120F2E70120F0E70020EEE700203E
:1030B000ECE70020EAE74FF0FF30E7E72DE9F041C9
:1030C00007460C4615462946204600F0B9F8064644
:1030D0003046BDE8F081826800230B804B809389E5
:1030E0005B1E1BB28B80138A5B1E1BB2CB807047AA
:1030F00070B50446204600F009F80546002201217B
:10310000A06908F029FB0543284670BD70B5044648
:10311000A06858B91C2001F097FDA060A56821693E
:1031200088688047064608F0FFFBA861A06808B9D8
:10313000012070BD0020FCE770B5044640F2DF13AB
:1031400040F21F3200210846FFF7B6FB002508E0D9
:10315000002602E005490C80761CB6F5F07FF9D315
:103160006D1CB5F5487FF3D370BD00000000106002
:1031700000B51021012000F079F800BD70B50446BB
:103180000D462B46224629462046FFF795FB02486E
:1031900000880249088070BD5C00002000001060BB
:1031A0002DE9F04704460D4616461F46DDF820A0DF
:1031B0003B46324629462046FFF77EFBA8460AE0FA
:1031C000A14604E00649A1F800A009F10109B145B2
:1031D000F8D908F10108B845F2D9BDE8F087000038
:1031E0000000106010B51448006840F0100012494B
:1031F00008600846006840F0200008600F484069F9
:1032000020F040000D4948614FF4FA7013F044FB80
:103210000A48406940F04000084948614FF4FA709C
:1032200013F03AFB0448006820F08000024908606F
:10323000FFF79EFF10BD0000140C0240001002407A
:1032400030B504460D46B4F5487F02D2B5F5F07F9F
:1032500001D3002030BD2B46224629462046FFF7E9
:103260002BFB01480088F5E7000010604FF0C043D9
:103270001880014B198070470000106010B50120C4
:1032800003F0BAFA40480AF0F5FD404809F0E2F9C7
:103290003F4800F039FC3D4809F0DCF93D48FEF7B5
:1032A00091FE3D48FEF776FF3C48FFF78FF83C481B
:1032B00009F0DCFD3B4809F0C7FE3B4807F01EF86B
:1032C0003A4809F09DFA08F079FD3949086002F0A2
:1032D000FDFB384800F070F9354908680BF074FCC4
:1032E0004FF42A73344A19463448006801F044F90F
:1032F000334908602E4988683149096801F03EF871
:103300002B4908684FF4B8710BF006F82D49086096
:103310002749086840F271110AF0FEFF2949486008
:10332000234908684FF4B9710AF0F6FF254988600F
:103330001F49086840F273110AF0EEFF2149C86086
:103340001B4908684FF4BA710AF0E6FF1D4908618D
:103350001749086840F275110AF0DEFF1949486103
:10336000134908684FF4BB710AF0D6FF154988610C
:103370000F49086840F277110AF0CEFF1149C86181
:1033800002F0A4FB10BD000040404000D1C5000881
:103390006D370008F91C0008A5200008212300084B
:1033A000B9CC00081DCF0008BDA2000849C700081D
:1033B0007C7A00203C000020406F00209401002017
:1033C000880100205C7A002010B504460022062106
:1033D000A06908F0C1F910BD10B50446002205210E
:1033E000A06908F0B9F910BD10B5FFF77FFA3049B0
:1033F000087407F0D3FD2E490968884205D907F003
:10340000D9FD2B494968884204D800202849086022
:10341000486008742748006825490968884205D92A
:103420002448006822490968401A04E020480068DE
:1034300020490968401A204908801E4840681C49F4
:103440004968884205D91B48406819494968401AAB
:1034500004E01748406817494968401A174908802E
:103460001448007A1249097C884207D11248008822
:103470001E2803DC114800881E2817DD0C48007C3C
:103480000C4908720A48007C48B109480068086085
:10349000074840684860084603F096FB06E0054888
:1034A00003F092FB002003490860486010BD000053
:1034B000F01E0020D4000020E0000020E2000020E8
:1034C0007CB504460D4616460020009001908DF80C
:1034D000045000966A460421A06908F03DF97CBDBD
:1034E0007CB504460D4616460020009001900095DC
:1034F00001966A460321A06908F02EF97CBD000000
:103500002DE9F04107460C4615461E460348066065
:1035100029462046FFF732FEBDE8F0815C0000201E
:103520002DE9FC4105460E4617460020009001900B
:103530002846FFF7EBFDA86878B1AC68606908B968
:10354000304600E0606960616660A76000960197A0
:103550006A460721A86908F0FFF8BDE8FC81F8B5C4
:1035600004460D46002000902046FFF7CFFDA068DE
:1035700038B1A668356000956A460221A06908F056
:10358000EBF8F8BD2DE9F04105460E4617462846F2
:10359000FFF7BCFDA86818B1AC68E66027616661FA
:1035A000BDE8F08104214FF0C0421180014908803C
:1035B000704700000000106000B503465878FFF720
:1035C000F1FF187800F020F8187898705878187083
:1035D0009878587000BD00000A48406940F010001B
:1035E000084948610846406940F0200048610846A3
:1035F000406940F0040048610846406940F02000FE
:10360000486170470010024005214FF0C042118010
:103610000149088070470000000010602DE9F0416A
:1036200004460D461646324629462046FFF746FD1B
:103630000746216988688047804687EA0803324642
:1036400029462046FFF75CFFBDE8F08100BFFEE79A
:1036500070B504461D460023B5F5804F13D154F8CC
:1036600022300C480340D1E9000640EA06108E687B
:1036700040EA06208E8940EA06408E6930430343C3
:1036800044F8223003E06FF0704044F8220000203C
:1036900070BD00000000F0CF10B50246002308689E
:1036A00052F8203018480340D1E901042043CC6887
:1036B00020430C6920434C6920438C692043CC692A
:1036C00020430C6A20434C6A20438C6A2043CC6A16
:1036D0002043CC6B20430C6B20434C6B20430343B3
:1036E0008868082801D143F04003086842F8203078
:1036F000486BB0F5801F05D1086818B110684C6B95
:1037000020431060002010BD8000E0FF30B503466C
:1037100014460022601C53F8202002F04042D1E9F8
:10372000000540EA05108D6840EA05208D8940EAD1
:103730000545088A401E45EA0055087D801E45EA79
:1037400000608D6928430243601C43F820201868FC
:1037500000F4801038B1586820F47002088A401EC6
:1037600042EA00525A60002030BD00002DE9F041CD
:10377000044694B0006800F0B7F908B1D94D01E0F3
:10378000D84D2C35606815281ED00CDC0B281FD0B6
:1037900004DC00287ED005287DD12FE10E287BD0C7
:1037A0001228F9D141E1162806D0172808D0182888
:1037B00008D01C28F0D109E0E86914B0BDE8F08118
:1037C000286AFAE7686AF8E7A86AF6E76869F4E73A
:1037D00020680B901C200C90206801F0CDFA03901B
:1037E000016D0BA88847064603A801F00FFB022EC7
:1037F0000FDB95E807008DE80700D4E904023346A3
:10380000A16903F02FFF20698719A069A0EB0608C2
:103810002CE0286803F012F82169E8690A18521EA2
:10382000606902F055F8A269E869111A491C6069DB
:1038300002F04EF8D4E904077F1C394602F08AF8FA
:103840003946A06902F086F8686802F0F7FF20693F
:103850003946401C02F07EF8A0693946401E02F04D
:1038600079F8A0692769A0F10208BF1C286802F056
:10387000E5FF42463946606902F02AF8686802F0BE
:10388000DDFF606942463946401C02F021F8686A53
:10389000022802E015E1B0E000E10BDDA86802F0CB
:1038A000CDFF61696A6A881C8B180146424638461A
:1038B0005B1E27E0296AB14226DD6069022E0746B9
:1038C00000F1020801DB374401E007F1020720693B
:1038D00001DB304401E000F1020022693B460A446A
:1038E0004146A2F1010202F013F9022E02DBA069A7
:1038F000821B01E0A269921EA069E9693B46401A59
:103900004146401C02F004F9022E02DB60690644C5
:1039100001E06669B61CE76928687F1E02F08EFF29
:103920003A463146206902F073F83A463146A069BA
:1039300002F06EF8E7696868BF1E02F07FFF206939
:103940003A463146401C02F063F8A0693A463146D7
:10395000401E02F05DF8E869022802DC286A0228AD
:1039600023DDA86A022802DDE1690F1A01E0E76998
:10397000BF1EA86802F062FFE969022909DD20691B
:103980003B46421800F1020C31466046521E02F0DE
:10399000BFF8286A022808DDA269E8693B46101AC8
:1039A0003146401C921E02F0B3F8286802F046FF30
:1039B000D4E90620216901F08BFF686802F03EFF20
:1039C000D4E906202169401E491C521E01F080FFE7
:1039D000A86A022811DDA1692669E469A1F102083B
:1039E000271AA41EB61C7F1CA86802F027FF2346D6
:1039F00042463946304602F08BF871E0208A00B228
:103A0000ADF81400A18A09B2ADF81610228B12B2DB
:103A1000ADF81820A38B1BB2ADF81A302C69ED68F5
:103A2000CDE9005401F020FF5AE0208A298B084498
:103A3000ADF81400A08AADF81600208B298B401A2F
:103A4000ADF81800A08BADF81A00206801F094F9C9
:103A50000390006FF0B1022002F03CFF039890F851
:103A60007C10C1F3C00100EB8100006C02F0E6FEA7
:103A70000398406B02F0ECFE0398006F01F07CF9B4
:103A800003990990B1F95A2005A901F0DBFD09A8B5
:103A900001F0BCF903A801F0B9F921E0208AADF8E2
:103AA0001400A08AADF81600208BADF81800A08B8A
:103AB000ADF81A00A86802F0C1FE05A802F04CF8A3
:103AC0000EE0206801F058F9039030F85A1F41F0D9
:103AD0000C01018003A801F099F920680BF014FA99
:103AE00000206AE60C05002038B5002450B101F032
:103AF00043F9009090F87C00000700D50124684647
:103B000001F084F9204638BD074A0649054B11608B
:103B1000064A083BD16958601B68C2E9063008466E
:103B200070470000000500205008002054080020C5
:103B300010B50146002091F83220920607D5B1F960
:103B40005400002803D1486B02F0FAF8801C10BD25
:103B500070B58AB00C46054601F00EF90990C06DAB
:103B6000866809A801F052F9009534B1012C06D0FD
:103B7000022C0BD0032C04D10AE0182000E0162000
:103B800001907168684688470AB070BD1520F7E754
:103B90001720F5E72DE9FC4117468846044601F059
:103BA000EBF80090C16D056868468E6801F02EF94B
:103BB0003268002120469047064620460AF0B4FBB2
:103BC00027E000BF01F0D8F80190B0F900102AB248
:103BD000B0F90430891A9A1AB0F90230A3EB2543E0
:103BE000B34210D190F82800000605D53868884205
:103BF00009DB491E396006E0D8F80000904202DC7B
:103C0000521CC8F8002001A801F000F920460AF073
:103C100028FC0400D6D1BDE8FC81000010B52DEDD4
:103C2000048B22484078012810D1214804F0D2FAB0
:103C300040F2DC521F491E4804F04CFB1C4800684F
:103C4000006820F020001A490968086000F0CEFDE5
:103C50000421012004F00EF9BCEEC00A10EE100A97
:103C6000154988810846808900EE100AB8EE400A9E
:103C700010EE101A0846FCF71DFC41EC190B9FEDE5
:103C80000F0B53EC102BFCF7A3FB41EC180BFCF7CC
:103C90003DFC094908610846838900221021094832
:103CA00004F054FCBDEC048B10BD0000410000206A
:103CB000E0090020480D00201000002066666666BE
:103CC00066664A3F880A00202DE9F0430446C5682D
:103CD00087B090468946002002F0B8FD064625B11F
:103CE000287910B146F0020001E026F0020002F04F
:103CF000ADFD2069012558B1D4E902128DE82600F6
:103D0000039563882288046841464846A0471EE020
:103D1000124F134B214638681B68427CE068984775
:103D200030B9E088012801D0002001E03868806BBC
:103D3000A288E388A1680095CDE90410CDE902329C
:103D40000195638822884146484606F0D7FE07B0B1
:103D50003046BDE8F04302F079BD00003C0200208F
:103D6000340200201CB50024019401AC009400F042
:103D7000E7F81CBD2DE9FF4F83B0814606988A46BF
:103D8000A0EB0A08109E00200090A2EB0904356801
:103D9000934654EA080018D02046FCF7A7FE0746D1
:103DA0004046FCF7A3FE87420BDA20464446804695
:103DB0004846D14682465846DDF818B006900120A4
:103DC0000090002C07DD204606E007B04846BDE81D
:103DD000F04F00F04FB96042A0420AD04846D946A1
:103DE0006442C8F1000883464FF0FF37DDF818A0A1
:103DF00000E001275148B8F1000F11D004EBD47155
:103E00004FEA610B01DACBF1000B4C480068807E71
:103E100088B3002F02DA30682044306000257BE050
:103E200000990029016821D0897E11B100278046C0
:103E300015E007B05A4649465046BDE8F04F06F037
:103E4000BFBF28466D1C11F05DFB38B9D8F80000E3
:103E500009EB0701406E4268504690477F1CA7421D
:103E6000EFDD6D1E356007B0BDE8F08F8A7E1AB1B8
:103E70000027804617E019E0486E5A46514603680D
:103E800007B04846BDE8F04F184728466D1C11F0B2
:103E900039FB38B9D8F8001009EB0700496E4A68B9
:103EA000514690477F1CA742EFDDDAE700250FE07F
:103EB00008FB05B090FBF4F101EB0A00009951B149
:103EC0001E4A09EB05011268526E526890476D1C3C
:103ED000A542EDDDC7E7194909EB05030968496EFD
:103EE0004A6801461846F1E708FB05B090FBF4F17B
:103EF00001EB0A00019030683844306011F002FB99
:103F000048B9009890B10D4809EB05010068406E72
:103F10004268019890476D1CA542E5DD3068002F8E
:103F200001DA20443060C01B30609CE7034909EB94
:103F300005000968496E4A680199EBE73C020020D8
:103F40002DE9FF470F4640491646804609680C9800
:103F50001D460A7E012A1CD0A8EB0600791B50EAF8
:103F600001031CD0A2F1010912F0EAFB00F5806008
:103F7000824603F04EFF00FB09F4504603F04EFF6B
:103F800000FB09F1002C0CDAC4F5007080124042ED
:103F90000AE00090324639464046FFF7EBFEBDE8A6
:103FA000FF8704F50074A012002904DAC1F500713E
:103FB00089124C4202E001F500718C12002804DDE8
:103FC000411C01EBD171491003E000EBD0714910A5
:103FD000401E00EBD0704210002C04DD601C00EB92
:103FE000D070401003E004EBD4704010641E04EB6A
:103FF000D47308EB0104ADF800403C18ADF8024062
:10400000A8EB02045B10B21AADF80440ADF808202A
:104010003144FC1AEA1AADF80C102844ADF80A2015
:10402000ADF80E000023ADF806401A46042168469C
:1040300000F08EF8394640460DF074FF29463046B0
:104040000DF070FFABE700003C020020F8B5084E11
:104050000546009230680C462346B0F92810B0F9A6
:1040600026002A46FFF76CFF3068C5840485F8BD3A
:104070003C020020064A13681A7E012A05D0521E0F
:1040800002EBD272521000F005B85A6E5268104717
:104090003C0200202DE9F05F0646884640F2C3202E
:1040A00002FB00F14FF47A7091FBF0F702FB02F192
:1040B00002EBD27001EB600B1446B118234A301B9F
:1040C0007F1C1268526E13680A46414698470125C4
:1040D00038E000BF05FB05F004FB040159451CDD79
:1040E000BC4219DD194B06EB050AA6EB05091B6856
:1040F000AAF1010208EB04015B6E09F101001B68E3
:104100009847124BAAF10102A8EB04011B6809F1C0
:1041100001005B6E1B689847641E0C4B3219301B04
:104120001B68924608EB05015B6E81461B68984749
:10413000064B5246A8EB05011B6848465B6E1B68A0
:1041400098476D1CBD42C5DDBDE8F09F3C020020D4
:104150002DE9FF4F43F6FF740F46664283B09B463E
:10416000814600210BE000BF09EB8100B0F902009D
:10417000A04200DA0446B04200DD0646491CB942BE
:10418000F2DB67480068406900280DD0B0F90610DE
:104190001A46A1EB0B01B14200DA0E46B0F902005B
:1041A000801AA04200DD0446B4E0DFF878A10020C8
:1041B0000546CAF8000088E0781E854201DA6B1CCB
:1041C00000E0002309EB850C09EB8302BCF9020037
:1041D000B2F90210A04244D1A14215D139F92330DD
:1041E000059A39F9251003EB020C4D4A059812681F
:1041F000084404EB0B01526E6045136801DA624615
:104200002AE00246604627E02846A4464FF0000810
:104210007A1E0BE008B1401E00E0781E09EB800317
:10422000B3F90230634504D108F101089045F1DB90
:104230002346A34248D01A1B39F92500A1EB040CF0
:10424000059B92EA0C0F09D4354A184404EB0B0184
:104250001268526E13680246984735E00BF0D0FCA6
:1042600032E0A14230D001DBA04203DDA0422BDBD3
:10427000A14229DCE04688420ADC0346A04223DC56
:104280000846A14220DBB8F900C0B2F9001008E0EE
:104290000B46A14218DCA04216DBB2F900C0B8F907
:1042A0000010E21AA1EB0C0151430029A0EB03021C
:1042B00002DD01EB620102E0A1EB6201491CC01AC0
:1042C00091FBF0F06044C9E76D1CBD42FFF674AF8E
:1042D0000598009004EB0B000190002080460546F5
:1042E00013E01149B8F1000F31F915A009D0009978
:1042F00001EB0A0208440A490968496E0B680199F2
:10430000984788F0010850466D1C064909688D429F
:10431000E7DB641CB4427FF748AF07B0BDE8F08F1D
:104320003C02002060090020B47D0020024A12688F
:10433000D0841185704700003C02002010B5002099
:1043400002F07AFA6FF07F4002F078FA012002F072
:10435000AFFA002002F0B4FA002002F0BBFA00200D
:1043600002F074FA0448006802F072FABDE81040E6
:10437000002002F079BA00003802002033B583B083
:10438000040016D000F0F8FC0190456E01A800F082
:104390003DFD049800F0F0FC00908460684600F059
:1043A00035FD042204A9284600F054FD20460AF0F9
:1043B00078FB05B030BD33B583B0040016D000F0F3
:1043C000DBFC0190856E01A800F020FD049800F050
:1043D000D3FC00908460684600F018FD042204A914
:1043E000284600F037FD20460AF05BFB05B030BDE3
:1043F0002DE9F04104460025D4E90007B0F5407FDF
:1044000000D101252146384609F092FA064615B139
:1044100038460FF06EFB002E2FD02068052806D0FE
:104420000B280ED00F2806D0262821D10EE03846C2
:104430000FF05FFB1CE03846E168BDE8F0410FF08B
:10444000F9BC3846BDE8F0410FF028BCE06805280B
:104450000ED138460AF041F8A168884205D03846A6
:104460000AF032F8A168884202D160680FF052FF6A
:104470002046BDE8F04109F033BEBDE8F081F0B55B
:1044800085B0B0F90850468A84690296CDE9035494
:104490000027CDE90017B0F90C10B0F91050B0F9B1
:1044A0000E40B0F90A00194410442B46224600F091
:1044B00003F805B0F0BD00002DE9F04186B00DF124
:1044C000300CDDE90F849CE8E0006C34DFF850C06C
:1044D00003948DE8601009F055FD04001BD000F036
:1044E000F6FC054600F0F3FC0646204600F044FCCE
:1044F0000490C0E919560022414609F0BFFB049818
:10450000302208493430FBF76DFE0498A0F878702B
:1045100004A800F07BFC06B02046BDE8F081000056
:10452000F1430008640500201CB50C46002812D099
:1045300000F022FC0090406A00F01EFC0146019051
:1045400004232246009800F0EBF801A800F05EFC7E
:10455000684600F05BFC1CBD08B500280AD000F0DE
:104560000BFC00210090016180680AF09AFA68460D
:1045700000F04CFC08BD00002DE9F043814685B0F9
:104580001D4690460F46342000F005FB060029D05A
:10459000B80000F000FB04000ED0B8F1000F0BD003
:1045A00055B1204600F0E8FBAA0041460090FBF719
:1045B00019FE684600F02AFC304600F0DDFB029050
:1045C0000121446280F82D100522826280F82C10AF
:1045D000064902C0064940F80C1B80E8A00202A868
:1045E00000F014FC05B03046BDE8F083E13F01085F
:1045F0002D3D01082DE9F8430746984615460E461D
:10460000302000F0C8FA040015D000F0B5FB00908F
:10461000C0E905768584094AB7EE000AC0F81C8017
:1046200080ED0A0AD2E90012C0E9031204490160D0
:10463000684600F0EBFB2046BDE8F88394050020B7
:104640000D41010838B50D46002460B100F094FB1F
:104650000090C468AC4203D0C56080680AF021FABB
:10466000684600F0D3FB204638BDF8B50D4606007D
:104670004FF000040CD000F07FFB0090846CAC4243
:1046800003D0856430460AF00CFA684600F0BEFBA1
:104690002046F8BDF8B50D4606004FF0000416D0D0
:1046A00000F06AFB0090B0F8781011F0010403D01C
:1046B00055B921F0010102E035B141F00101A0F846
:1046C000781030460AF0EDF9684600F09FFB20466E
:1046D000F8BDF8B50D4606004FF000040ED000F00E
:1046E0004BFB009090F86C40AC4204D080F86C50CA
:1046F00030460AF0D6F9684600F088FB2046F8BD3F
:1047000038B50D4604000AD000F036FB0090C0F822
:104710009450684600F07AFB20460AF0C2F938BD92
:104720002DE9F041044680681D4617460E460028D4
:1047300026D0D4E9040290420ED1521E6A43711968
:104740003046FBF74FFD20692A46401E05FB0060FE
:104750003946FBF747FD0EE005FB0013401C2061C6
:104760002A4639461846FBF73DFDE16819B1204657
:10477000BDE8F0410847A068BDE8F04100F002B88C
:10478000BDE8F08110B58AB0044600F0F5FA09A939
:1047900004AACDE9002105AB089006AA07A90EF0EE
:1047A000BEFE08A800F032FB02A9204609F0F6FD83
:1047B000BDF8080007990844ADF80800BDF80A00E4
:1047C00006990844ADF80A00BDF80C000599401A96
:1047D000ADF80C00BDF80E000499401AADF80E00BB
:1047E00002A920460AF022F90AB010BD10B54FF414
:1047F0002A71214807F0BCFD00B910BD1F480068B0
:10480000FFF7AAFE00201E4908600DE01A481C4A66
:10481000126800EB820119480068FFF785FE18480E
:104820000068401C164908601648006A1449096867
:104830008842EBD8144908680AF033F912494868ED
:104840000AF02FF9104988680AF02BF90E49C86858
:104850000AF027F90C4908690AF023F90A4948695E
:104860000AF01FF9084988690AF01BF90649C86966
:104870000AF017F900BFC0E7406F00208801002050
:10488000A0010020100000205C7A00202DE9F04FEC
:10489000DFF828B191B04FF0FF35DBF80030B3F905
:1048A00022100691DE69B3F92490F469A18981424E
:1048B00006D8E289824203D3471AD4F8008012E076
:1048C000D4E9018100296FD00A8882426CD84D88D2
:1048D000854269D3801A82B2486800EB8200B0F941
:1048E0000070B0F90250781C5ED0307EA17C10FBC5
:1048F00001FA217CCDE90701B3F92A60304606F0C0
:1049000049FDC0B20E90DBF8000007FB0A81A37CD2
:10491000826B0127CDE90412CDE90273C069089AC0
:10492000C17E807ECDE90001DDE90603494606F03F
:10493000E5F8681C18D046F0020006F02BFDDBF805
:104940000000A37C05FB0A81826BCDE90273CDE9EF
:104950000412C069089AC17E807ECDE90001DDE9BC
:104960000603494606F0CAF8DBF800005D46C06958
:10497000417E007E814214D9022E12D086F00400BE
:1049800006F008FD2868C069027EC37E12FB039111
:10499000437E857E089A06984B4412FB050206F07A
:1049A00039FA0E9806F0F6FCDBF80000627C418CC8
:1049B0001144418411B0BDE8F08F00003C0200209A
:1049C00004480068C069C06909B1027C0A60407C83
:1049D000704700003C020020022008807047C06938
:1049E00082898A4202D8C2898A4210D2806880B104
:1049F00002888A420DD843888B420AD3406800EB74
:104A00008100A0EB8200B0F90000002801DB01204A
:104A100070470020704700002DE9F043304C0346FA
:104A200087B020681946B0F92A60C069C06900F0F3
:104A300086F8002850D041680088181A01EBC0059C
:104A40003046AF7806F0A6FC814620686A680123EC
:104A5000816BCDE90237CDE90421C169CB7E8A7E25
:104A6000CDE900230B7EB0F924102A78B0F922009A
:104A700006F044F82068C069417E027E91421FD949
:104A8000C07E11FB00F812FB00F7022E18D001F0D7
:104A9000E4F8064601F0C4F801F0D0FE21682A7857
:104AA000CB69B1F92200DB7E12FB0302B1F92410BD
:104AB00001EB0803394406F0ADF9304601F0BEFEC3
:104AC000484606F067FC20686A78C369B0F922108E
:104AD0009B7E12FB0311418407B0BDE8F083000008
:104AE0003C02002030B50F4C05460B462068294695
:104AF000C069C06900F023F8002812D0416800881E
:104B000024682A1A0120E46900EBC200085CA47E34
:104B100010FB04F0002B04D011F8321011FB04F14B
:104B2000196030BD3C02002001200880704700B5AC
:104B3000C06900F004F8002800D0012000BD06E0A4
:104B400002888A4202D842888A4202D280680028BB
:104B5000F6D17047F8B505460C000DD0084600F0B8
:104B600015F8060010D000F007F9224600902DB18C
:104B70002946FBF737FB04E00020F8BD002103F0D5
:104B8000E7F8684600F042F93046F8BD002801D049
:104B90000BF098B8704738B50546FFF7F7FF0400EB
:104BA00009D000F0E9F82A460021009003F0D0F87F
:104BB000684600F02BF9204638BD0000024A10601C
:104BC00021F0030050607047F47B002010B50028EE
:104BD00014D004460A48406B10F8341000290DD058
:104BE00002290BD2042101EBC401415848680BF0A3
:104BF00023F82046BDE8104010F09ABA10BD00001E
:104C0000347B0020002805D0034AD16B016001B13C
:104C10004860D06370470000347B002010B5044624
:104C20000068FFF7D3FF0020206010BD70B50D466F
:104C30000646002405E000BF06EB8400FFF7EEFF08
:104C4000641CAC42F8DB70BD2DE9F04104460EF067
:104C5000EBFD2848E41C24F00305016C2D1DA9423E
:104C600000D90D46C46B13E054F8042CAA420ED1AF
:104C700084B1216809B162684A60616809B122683B
:104C80000A60C26BA24231D12168C1632EE0246860
:104C9000002CE9D18046816BC0680F1857F8040CCE
:104CA0003E1A306838B1002010F0B8FA57F8040CFA
:104CB0003E1A3068D0B97068A84217DB3044441BF4
:104CC0003046241D10F062FAD8F80C10491BC8F8C1
:104CD0000C10D8F814102944C8F814107068401B40
:104CE00002D031460AF0A8FF44F8045C2046BDE833
:104CF000F0810000347B002010B500240EF094FDFC
:104D00000C490F2001EBC002526C1AB101EBC0003C
:104D1000406C08E0401EF5D508E04168A14200D98A
:104D20000C46806810B180680028F6D1A4F10C0010
:104D300010BD0000347B0020034800680C380028B8
:104D400000DC002070470000347B00200248C1686E
:104D50000068081A70470000347B0020002138B139
:104D60000449042202EBC000496B085841680C3921
:104D700008467047347B00200549CA69521CCA6145
:104D8000496B01EBC0010A78521C0A7000F056B85A
:104D9000347B00207CB506460C460846FFF7F6FE3D
:104DA00005001CD0DEB13046FFF7D8FFA04200DA84
:104DB00004462846FFF7E0FF00903046FFF7DCFF8F
:104DC0000146019022460098FBF70CFA684600F075
:104DD0001DF801A800F01AF83046FFF7F7FE284644
:104DE0007CBD000010B5FFF787FF64220649B0F5CF
:104DF000800F04D990FBF2F0096A484310BD096A9C
:104E00004143B1FBF2F010BD347B00200A49026837
:104E10004B6B52F8082C03EBC2021378022B03D31E
:104E2000CB690BB15B1ECB611178491E117000215B
:104E30000160084670470000347B0020002806D03F
:104E40000349042202EBC000496B08580830704740
:104E5000347B00202DE9FC414FF000060B465FEA51
:104E6000000834462BD032B111461846FFF772FEC7
:104E7000060000D101244046FFF77EFF009007881E
:104E800045686846FFF7C2FFCCB9B9002846091D3E
:104E9000FFF780FF050015D0FFF76EFF019040F887
:104EA000276001A8FFF7B2FF4046FFF765FF0090BB
:104EB00045600188491C01806846FFF7A7FF20462E
:104EC000BDE8FC813046FFF781FE0124F7E70820AA
:104ED000FFF761BE7CB5050023D0FFF74DFF0090C2
:104EE0004068C0B1FFF748FF0024019005E0019839
:104EF00000EB8400FFF792FE641C00980088A0423B
:104F0000F5DC01A8FFF782FF0098001DFFF786FE81
:104F10000099002008806846FFF778FF2846FFF7D1
:104F200055FE7CBD38B5002430B1FFF725FF009059
:104F300004886846FFF76AFF204638BD38B50D463D
:104F4000002448B1FFF718FF2946009000F016F83A
:104F500004466846FFF75AFF204638BD38B50D466F
:104F6000002448B1FFF708FF2946009000F018F828
:104F700004466846FFF74AFF204638BD38B50D465F
:104F800001880024A94209D9406838B1FFF7F4FE2E
:104F9000009050F825406846FFF738FF204638BD9E
:104FA00010B50024FFF7EAFF10B1FFF7E5FE044655
:104FB000204610BD70B50C46054600F043FFC1B257
:104FC00023462846BDE87040002200F001B80000EA
:104FD000F0B52D271C68B0F1004F08D0002600283E
:104FE0000DDA651C1D6027704042012408E0651C35
:104FF00001261D606FF000402770491E01E000246B
:10500000091BC9B22AB3491EC9B222E00C46491E87
:10501000C9B2944205D1124C27781C68651C1D60EA
:105020002770104C54F8215090FBF5F4E4B20A2C90
:1050300011D804FB150011B90EB1641CE4B20A2C9E
:1050400002D10124491CC9B21D686F1C30341F6095
:105050002C700029DAD1196800200870F0BD00001A
:10506000300200206CA0010810B5136808290DD883
:105070005C18146000222270054A04E000F00F045E
:105080000009145D5C54491EC9B2F7D210BD00007E
:1050900090AB010810B5002807DD0A682B24531CCB
:1050A0000B601470096800220A7010BD70B50646C6
:1050B0000D461446104600F0D7FD0300164804EBD9
:1050C00084010AD050F8210041688068711A2A1AB8
:1050D000BDE87040184601F0C5BB00EB8104A26832
:1050E000B24201D0012200E00022E368AB4201D0CD
:1050F000012300E000231A430CD0236943B150F888
:105100002100816840686A1A311A184601F05CFB78
:10511000C4E9026570BD0000707C002010B5C2B209
:10512000CBB2D21A00D5524293B25B43C0F30722EE
:10513000C1F30724121B00D55242000C92B2A0EB1F
:10514000114002FB023200B2002801DA404200B2F4
:1051500080B200FB002010BD10B50021084600F011
:1051600005FE43F6FF725042BDE81040134601466B
:10517000AFF300802DE9FC4107461C4615460E465C
:10518000042006F007F980461148C068C16C006D24
:105190000F4406440D440444ADF80070ADF80450CB
:1051A000ADF80260ADF8064068460AF083F807E003
:1051B00023462A463146384605F02CFE0AF03CF8D4
:1051C0000028F5D1404606F0E5F8BDE8FC81000076
:1051D00030020020B0F90630B0F90420B0F9021016
:1051E000B0F90000FFF7C6BF2DE9F8431C00DDE968
:1051F000089816460F46054602D109F077F804468E
:1052000000962E6843464A4621462846B047060087
:1052100035D009F05FF88146698A304608F018FCFD
:10522000304609F0CDFE484609F0CAFE4FF00008AE
:105230000CE000BFCDF8008055F81CCF00231A46C3
:1052400049462846E047E0B109F0BAFE7F1E002F2C
:10525000F0DC1D21484609F07AFD601C0ED009F0F3
:1052600075F830B1FFF7EAFD8469B44201D020003F
:10527000F8D1B44202D0304609F01EFE3046BDE8F7
:10528000F883304608F060FF0020F8E72DE9F04190
:105290001C4616460D460746022B02DB0020BDE8E1
:1052A000F0811C20FFF7D0FC0028F8D00DB105617B
:1052B0000AE0094A52F8241009B905E011460A68C3
:1052C000002AFBD1096901618461868200210160A5
:1052D0004160C0E90217E2E75402002070B51D46A4
:1052E000FFF7D4FF040009D000F00EF8E068006872
:1052F00020B90348006800EB85008465204670BD36
:105300003C020020FFF77EBC70B590B38269022A90
:1053100030DA1E4C54F8221019B944F8220032E059
:1053200019464B68002BFBD106E0CB68C5681B68AB
:105330002D68AB4203DD09680029F6D11AE0C1B13E
:10534000CB68C6681B683668B3420CD1838A012BD0
:1053500005D008E01946DB681B68AB4203DB0B682D
:10536000002BF7D129B14B6833B118604A6842600D
:1053700004E0FFE7012070BD44F822004860884245
:1053800000D100210160002070BD00005402002007
:1053900010F0CEBC022801DB00207047054951F80F
:1053A000200004E0C16809680029F6D000680028E0
:1053B000F8D1704754020020F8B516460F46050094
:1053C0004FF000040FD00C20FFF7E5FB04000AD0DB
:1053D000FFF7D2FC05490090C0E90015078146811E
:1053E0006846FFF713FD2046F8BD00006CA90108D0
:1053F0002DE9F8431D461646884604000CD0FFF7F9
:10540000BBFC0090006807686846FFF7FFFC2B466E
:10541000324641462046B847BDE8F88338B5040017
:105420004FF000000AD02046FFF7A6FC009000686D
:1054300045686846FFF7EAFC2046A84738BD38B5FE
:1054400004004FF000000AD02046FFF795FC0090C2
:10545000006885686846FFF7D9FC2046A84738BD34
:1054600010B500F055FC08490A68B2F92410091A71
:10547000D069437E481E0344B2F92200BDE81040C3
:105480004FF47A62FFF776BE3C0200201FB503A9F5
:10549000CDF80CD0FFF78EFD684600F04BF81FBD2D
:1054A0001FB503ABCDF80CD0FFF792FD684600F0B6
:1054B00041F81FBD10B504462DED028BB0EE408AB9
:1054C000BDEEC80A10EE100A00F0BCFC211AB5EEC1
:1054D000C08A491EF1EE10FA05D218EE100A10F13A
:1054E000814F00D2491E002900DA0021B0EE480A9F
:1054F000BDEC028B2046BDE81040C9B200220BF083
:10550000CDB800210BF0EAB87FB50C461546CDF8B2
:105510000CD003A9FFF7BEFD002801DD641EE4B234
:1055200003AB2A462146FFF753FD684600F002F818
:105530007FBD00002DE9FC4706005BD000F0ACFB0E
:105540003B4C81462068B0F9228000F0E1FB2168E5
:1055500007468A8CD01B888441E000BF47F6FF7164
:10556000304602F04DFA82460146304602F01EFAFD
:105570002168054691F82C0000F0030001283FD077
:10558000022839D000204A8C101A4884ADF8000057
:105590006A1E1044ADF80400888CADF80200A9F131
:1055A00001010844ADF806006A465146304601F054
:1055B00069FE2168BDF8020088845146304601F03A
:1055C0005DFB064430780A281CD00D281AD0BDF89F
:1055D0000000216828444884307818B1761C30785F
:1055E0000028BBD12068818C39448184818D21F0D1
:1055F00003018185BDE8FC8705EBD5704010C2E74B
:105600002846C0E7206890F82C1001F0030101291A
:105610000BD0022909D0018C418431780A29DBD1D1
:10562000828C02EB09018184D6E7A0F82280F4E79E
:105630003C020020024B1B6859849A84FFF77ABF12
:105640003C02002047F6FF7300F040B82DE9FF4709
:105650001F460C9E90460D46814676B3002400946A
:105660000194ADB1286800906868019016480099CF
:10567000016001994160284609F096FC040007D0BA
:105680000246294602A802F028FA02A809F08CFC7A
:10569000304610F0E3F905467168684688473B4696
:1056A00042466946484601F045FE204609F07CFC2A
:1056B000284610F0D3F9BDE8FF87FFE704B0BDE846
:1056C000F04700F003B80000800200202DE9FC4103
:1056D0001F46904606000D464FF0000416D065B1F7
:1056E000084609F061FC040007D0024629466846D6
:1056F00002F0F3F9684609F057FC3B46424629465A
:10570000304601F017FE204609F04EFCBDE8FC8152
:105710007CB5064610480068C36C006D5D1884189F
:105720003188681E0844ADF80400ADF80050718857
:10573000601E0844ADF80600ADF80240684609F066
:10574000B9FD06E0224629463046FEF7BDFA09F0CB
:1057500073FD0028F6D17CBD3C0200201CB50A4632
:105760000146684602F0A8FA2448BDF80010006817
:1057700030F84C2F1144ADF80010BDF802108288AB
:105780001144ADF80210BDF8041002881144ADF8C0
:105790000410BDF8061080880844ADF8060068467D
:1057A00009F088FD27E000BFBDF900400BE000BF15
:1057B000BDF90210204605F0CFFABDF906102046CB
:1057C00005F0CAFAA41CBDF90400A042F0DABDF944
:1057D00002400AE0BDF90000214605F0BDFABDF91E
:1057E0000400214605F0B8FAA41CBDF90600A04249
:1057F000F0DA09F021FD0028D6D11CBD3C020020C2
:105800002DE9F04F0C46164987B00D68DDE9109878
:10581000E96C0F18286D8D180619C418ADF81070B2
:10582000ADF81450ADF81260ADF8164004A809F0B8
:1058300041FD002811D0DFF82CB04FF0000ACDE96F
:105840000098CDE902BA2B462246394630460CF084
:10585000BDF909F0F1FC0028F1D107B0BDE8F08FE7
:105860003C020020C1AD00082DE9F04F164C87B076
:105870002568DDE91098EC6C2718286DA5184618E6
:10588000C418ADF81070ADF81450ADF81260ADF852
:10589000164004A809F00EFD002811D0DFF82CB046
:1058A0004FF0010ACDE90098CDE902BA23462A4615
:1058B000314638460CF08AF909F0BEFC0028F1D1D7
:1058C00007B0BDE8F08F00003C02002001AD0008E9
:1058D0002DE9FC41104F04463B68D86C4518196D02
:1058E000ADF800500E198418ADF80440ADF8026010
:1058F000ADF80660684609F0DDFC08E0386822462D
:105900003146406E03682846984709F095FC002808
:10591000F4D1BDE8FC8100003C0200202DE9F041FB
:105920000B4C2568EC6C2718286DA5184618C41870
:10593000002009F0BFFC07E023462A4631463846DE
:10594000FEF710FA09F078FC0028F5D1BDE8F081E7
:105950003C0200207CB50E4D2A68D36C1E18106DD9
:10596000ADF804604418ADF80060ADF80640ADF83D
:105970000240684609F09EFC07E028682146406E18
:1059800042683046904709F057FC0028F5D17CBDAD
:105990003C0200202DE9FC411C4C2468E66C94F884
:1059A00018C03718206DACF1010C4518C418A7EBCE
:1059B0000C001644ADF8000006EB0C00ADF8040036
:1059C000A5EB0C00ADF8020004EB0C00ADF80600EE
:1059D000684609F06FFC15E032462946384605F066
:1059E0008FF932462146384605F08AF9621E691C55
:1059F000384605F0E5F9621E691C304605F0E0F90D
:105A000009F01AFC0028E7D1BDE8FC813C02002027
:105A10007CB50E4B1B68DC6C2618186DADF8006069
:105A200045188418ADF80460ADF80250ADF8064092
:105A3000684609F03FFC06E022462946304605F05C
:105A4000BFF909F0F9FB0028F6D17CBD3C0200202B
:105A500070B50C46054600F011F910B10121C0E9FE
:105A600000142846BDE8704009F068BB10B5044634
:105A700001F01CFA04490968002903D02046BDE85A
:105A80001040084710BD00009807002030B59DB0B9
:105A90000D460446CDF870D06F220021684602F012
:105AA00057F96422214668460AF0D8FB6846FAF79F
:105AB000CBFB1C991CAA08441C900821284601F025
:105AC000FEF96846FFF7D2FF1DB030BD10B50024C7
:105AD00000E0012400F004F80028FAD1204610BDAF
